{
    "contractName": "AccountRulesList",
    "abi": [
        {
            "anonymous": false,
            "inputs": [
                {
                    "indexed": false,
                    "internalType": "bool",
                    "name": "accountAdded",
                    "type": "bool"
                },
                {
                    "indexed": false,
                    "internalType": "address",
                    "name": "accountAddress",
                    "type": "address"
                }
            ],
            "name": "AccountAdded",
            "type": "event"
        },
        {
            "anonymous": false,
            "inputs": [
                {
                    "indexed": false,
                    "internalType": "bool",
                    "name": "accountRemoved",
                    "type": "bool"
                },
                {
                    "indexed": false,
                    "internalType": "address",
                    "name": "accountAddress",
                    "type": "address"
                }
            ],
            "name": "AccountRemoved",
            "type": "event"
        },
        {
            "inputs": [
                {
                    "internalType": "uint256",
                    "name": "index",
                    "type": "uint256"
                }
            ],
            "name": "getByIndex",
            "outputs": [
                {
                    "internalType": "address",
                    "name": "account",
                    "type": "address"
                }
            ],
            "stateMutability": "view",
            "type": "function"
        },
        {
            "inputs": [],
            "name": "getAccounts",
            "outputs": [
                {
                    "internalType": "address[]",
                    "name": "",
                    "type": "address[]"
                }
            ],
            "stateMutability": "view",
            "type": "function"
        }
    ],
    "bytecode": "0x608060405234801561001057600080fd5b506105fb806100206000396000f3fe608060405234801561001057600080fd5b50600436106100365760003560e01c80632d883a731461003b5780638a48ac031461006b575b600080fd5b61005560048036038101906100509190610324565b610089565b60405161006291906103f4565b60405180910390f35b61007361013c565b604051610080919061040f565b60405180910390f35b60008060009054906101000a900473ffffffffffffffffffffffffffffffffffffffff1673ffffffffffffffffffffffffffffffffffffffff16632d883a73836040518263ffffffff1660e01b81526004016100e59190610431565b60206040518083038186803b1580156100fd57600080fd5b505afa158015610111573d6000803e3d6000fd5b505050506040513d601f19601f8201168201806040525081019061013591906102ae565b9050919050565b606060008054906101000a900473ffffffffffffffffffffffffffffffffffffffff1673ffffffffffffffffffffffffffffffffffffffff16638a48ac036040518163ffffffff1660e01b815260040160006040518083038186803b1580156101a457600080fd5b505afa1580156101b8573d6000803e3d6000fd5b505050506040513d6000823e3d601f19601f820116820180604052508101906101e191906102db565b905090565b60006101f96101f484610471565b61044c565b9050808382526020820190508285602086028201111561021c5761021b610577565b5b60005b8581101561024c57816102328882610256565b84526020840193506020830192505060018101905061021f565b5050509392505050565b60008151905061026581610597565b92915050565b600082601f8301126102805761027f610572565b5b81516102908482602086016101e6565b91505092915050565b6000813590506102a8816105ae565b92915050565b6000602082840312156102c4576102c3610581565b5b60006102d284828501610256565b91505092915050565b6000602082840312156102f1576102f0610581565b5b600082015167ffffffffffffffff81111561030f5761030e61057c565b5b61031b8482850161026b565b91505092915050565b60006020828403121561033a57610339610581565b5b600061034884828501610299565b91505092915050565b600061035d8383610369565b60208301905092915050565b610372816104d6565b82525050565b610381816104d6565b82525050565b6000610392826104ad565b61039c81856104c5565b93506103a78361049d565b8060005b838110156103d85781516103bf8882610351565b97506103ca836104b8565b9250506001810190506103ab565b5085935050505092915050565b6103ee81610508565b82525050565b60006020820190506104096000830184610378565b92915050565b600060208201905081810360008301526104298184610387565b905092915050565b600060208201905061044660008301846103e5565b92915050565b6000610456610467565b90506104628282610512565b919050565b6000604051905090565b600067ffffffffffffffff82111561048c5761048b610543565b5b602082029050602081019050919050565b6000819050602082019050919050565b600081519050919050565b6000602082019050919050565b600082825260208201905092915050565b60006104e1826104e8565b9050919050565b600073ffffffffffffffffffffffffffffffffffffffff82169050919050565b6000819050919050565b61051b82610586565b810181811067ffffffffffffffff8211171561053a57610539610543565b5b80604052505050565b7f4e487b7100000000000000000000000000000000000000000000000000000000600052604160045260246000fd5b600080fd5b600080fd5b600080fd5b600080fd5b6000601f19601f8301169050919050565b6105a0816104d6565b81146105ab57600080fd5b50565b6105b781610508565b81146105c257600080fd5b5056fea26469706673582212203e96a24bf36226e466d1d908a9489b233d3e74929d522943aebe8136f451b73e64736f6c63430008060033",
    "immutableReferences": {},
    "source": "/*\n * Copyright ConsenSys AG.\n *\n * Licensed under the Apache License, Version 2.0 (the \"License\"); you may not use this file except in compliance with\n * the License. You may obtain a copy of the License at\n *\n * http://www.apache.org/licenses/LICENSE-2.0\n *\n * Unless required by applicable law or agreed to in writing, software distributed under the License is distributed on\n * an \"AS IS\" BASIS, WITHOUT WARRANTIES OR CONDITIONS OF ANY KIND, either express or implied. See the License for the\n * specific language governing permissions and limitations under the License.\n *\n * SPDX-License-Identifier: Apache-2.0\n */\npragma solidity >=0.6.0 <0.9.0;\n\nimport \"./AccountStorage.sol\";\n\n\ncontract AccountRulesList {\n    event AccountAdded(\n        bool accountAdded,\n        address accountAddress\n    );\n\n    event AccountRemoved(\n        bool accountRemoved,\n        address accountAddress\n    );\n\n    AccountStorage private accountStorage;\n\n    function setStorage(AccountStorage _storage) internal {\n        accountStorage = _storage;\n    }\n\n    function upgradeVersion(address _newVersion) internal {\n        accountStorage.upgradeVersion(_newVersion);\n    }\n\n    function size() internal view returns (uint256) {\n        return accountStorage.size();\n    }\n\n    function exists(address _account) internal view returns (bool) {\n        return accountStorage.exists(_account);\n    }\n\n    function add(address _account) internal returns (bool) {\n        return accountStorage.add(_account);\n    }\n\n    function addAll(address[] memory accounts) internal returns (bool) {\n        bool allAdded = true;\n        for (uint i = 0; i < accounts.length; i++) {\n            bool added = add(accounts[i]);\n            emit AccountAdded(added, accounts[i]);\n            allAdded = allAdded && added;\n        }\n\n        return allAdded;\n    }\n\n    function remove(address _account) internal returns (bool) {\n        return accountStorage.remove(_account);\n    }\n\n    function getByIndex(uint index) public view returns (address account) {\n        return accountStorage.getByIndex(index);\n    }\n\n    function getAccounts() public view returns (address[] memory){\n        return accountStorage.getAccounts();\n    }\n}\n",
    "sourcePath": "/home/bryba/Projects/permissioning-smart-contracts/contracts/AccountRulesList.sol",
    "compiler": {
        "name": "solc",
        "version": "0.8.6+commit.11564f7e.Emscripten.clang"
    },
    "schemaVersion": "3.4.3",
    "updatedAt": "2022-01-12T09:17:53.292Z",
    "devdoc": {
        "kind": "dev",
        "methods": {},
        "version": 1
    },
    "userdoc": {
        "kind": "user",
        "methods": {},
        "version": 1
    }
}