{
    "contractName": "AccountIngress",
    "abi": [
        {
            "anonymous": false,
            "inputs": [
                {
                    "indexed": false,
                    "internalType": "address",
                    "name": "contractAddress",
                    "type": "address"
                },
                {
                    "indexed": false,
                    "internalType": "bytes32",
                    "name": "contractName",
                    "type": "bytes32"
                }
            ],
            "name": "RegistryUpdated",
            "type": "event"
        },
        {
            "inputs": [],
            "name": "ADMIN_CONTRACT",
            "outputs": [
                {
                    "internalType": "bytes32",
                    "name": "",
                    "type": "bytes32"
                }
            ],
            "stateMutability": "view",
            "type": "function",
            "constant": true
        },
        {
            "inputs": [],
            "name": "RULES_CONTRACT",
            "outputs": [
                {
                    "internalType": "bytes32",
                    "name": "",
                    "type": "bytes32"
                }
            ],
            "stateMutability": "view",
            "type": "function",
            "constant": true
        },
        {
            "inputs": [],
            "name": "getAllContractKeys",
            "outputs": [
                {
                    "internalType": "bytes32[]",
                    "name": "",
                    "type": "bytes32[]"
                }
            ],
            "stateMutability": "view",
            "type": "function",
            "constant": true
        },
        {
            "inputs": [
                {
                    "internalType": "bytes32",
                    "name": "name",
                    "type": "bytes32"
                }
            ],
            "name": "getContractAddress",
            "outputs": [
                {
                    "internalType": "address",
                    "name": "",
                    "type": "address"
                }
            ],
            "stateMutability": "view",
            "type": "function",
            "constant": true
        },
        {
            "inputs": [],
            "name": "getSize",
            "outputs": [
                {
                    "internalType": "uint256",
                    "name": "",
                    "type": "uint256"
                }
            ],
            "stateMutability": "view",
            "type": "function",
            "constant": true
        },
        {
            "inputs": [
                {
                    "internalType": "address",
                    "name": "account",
                    "type": "address"
                }
            ],
            "name": "isAuthorized",
            "outputs": [
                {
                    "internalType": "bool",
                    "name": "",
                    "type": "bool"
                }
            ],
            "stateMutability": "view",
            "type": "function",
            "constant": true
        },
        {
            "inputs": [
                {
                    "internalType": "bytes32",
                    "name": "_name",
                    "type": "bytes32"
                }
            ],
            "name": "removeContract",
            "outputs": [
                {
                    "internalType": "bool",
                    "name": "",
                    "type": "bool"
                }
            ],
            "stateMutability": "nonpayable",
            "type": "function"
        },
        {
            "inputs": [
                {
                    "internalType": "bytes32",
                    "name": "name",
                    "type": "bytes32"
                },
                {
                    "internalType": "address",
                    "name": "addr",
                    "type": "address"
                }
            ],
            "name": "setContractAddress",
            "outputs": [
                {
                    "internalType": "bool",
                    "name": "",
                    "type": "bool"
                }
            ],
            "stateMutability": "nonpayable",
            "type": "function"
        },
        {
            "inputs": [],
            "name": "getContractVersion",
            "outputs": [
                {
                    "internalType": "uint256",
                    "name": "",
                    "type": "uint256"
                }
            ],
            "stateMutability": "view",
            "type": "function",
            "constant": true
        },
        {
            "inputs": [
                {
                    "internalType": "address",
                    "name": "sender",
                    "type": "address"
                },
                {
                    "internalType": "address",
                    "name": "target",
                    "type": "address"
                },
                {
                    "internalType": "uint256",
                    "name": "value",
                    "type": "uint256"
                },
                {
                    "internalType": "uint256",
                    "name": "gasPrice",
                    "type": "uint256"
                },
                {
                    "internalType": "uint256",
                    "name": "gasLimit",
                    "type": "uint256"
                },
                {
                    "internalType": "bytes",
                    "name": "payload",
                    "type": "bytes"
                }
            ],
            "name": "transactionAllowed",
            "outputs": [
                {
                    "internalType": "bool",
                    "name": "",
                    "type": "bool"
                }
            ],
            "stateMutability": "view",
            "type": "function",
            "constant": true
        }
    ],
    "bytecode": "0x60806040527f72756c657300000000000000000000000000000000000000000000000000000060001b6000557f61646d696e697374726174696f6e00000000000000000000000000000000000060001b600155620f424060055534801561006557600080fd5b5061129c806100756000396000f3fe608060405234801561001057600080fd5b506004361061009e5760003560e01c8063936421d511610066578063936421d51461014b578063a43e04d81461017b578063de8fa431146101ab578063e001f841146101c9578063fe9fbb80146101f95761009e565b80630d2020dd146100a357806310d9042e146100d357806311601306146100f15780631e7c27cb1461010f5780638aa104351461012d575b600080fd5b6100bd60048036038101906100b89190610b9f565b610229565b6040516100ca9190610d86565b60405180910390f35b6100db6102ab565b6040516100e89190610e34565b60405180910390f35b6100f9610303565b6040516101069190610e71565b60405180910390f35b610117610309565b6040516101249190610e71565b60405180910390f35b61013561030f565b6040516101429190610f0c565b60405180910390f35b61016560048036038101906101609190610ac3565b610319565b6040516101729190610e56565b60405180910390f35b61019560048036038101906101909190610b9f565b610439565b6040516101a29190610e56565b60405180910390f35b6101b36106ae565b6040516101c09190610f0c565b60405180910390f35b6101e360048036038101906101de9190610bcc565b6106bb565b6040516101f09190610e56565b60405180910390f35b610213600480360381019061020e9190610a96565b6108b2565b6040516102209190610e56565b60405180910390f35b60008060001b8211610270576040517f08c379a000000000000000000000000000000000000000000000000000000000815260040161026790610eec565b60405180910390fd5b6002600083815260200190815260200160002060009054906101000a900473ffffffffffffffffffffffffffffffffffffffff169050919050565b606060038054806020026020016040519081016040528092919081815260200182805480156102f957602002820191906000526020600020905b8154815260200190600101908083116102e5575b5050505050905090565b60005481565b60015481565b6000600554905090565b60008073ffffffffffffffffffffffffffffffffffffffff1661033d600054610229565b73ffffffffffffffffffffffffffffffffffffffff161415610362576001905061042e565b600260008054815260200190815260200160002060009054906101000a900473ffffffffffffffffffffffffffffffffffffffff1673ffffffffffffffffffffffffffffffffffffffff1663936421d5898989898989896040518863ffffffff1660e01b81526004016103db9796959493929190610da1565b60206040518083038186803b1580156103f357600080fd5b505afa158015610407573d6000803e3d6000fd5b505050506040513d601f19601f8201168201806040525081019061042b9190610b72565b90505b979650505050505050565b60008060001b8211610480576040517f08c379a000000000000000000000000000000000000000000000000000000000815260040161047790610eec565b60405180910390fd5b6000600380549050116104c8576040517f08c379a00000000000000000000000000000000000000000000000000000000081526004016104bf90610eac565b60405180910390fd5b6104d1336108b2565b610510576040517f08c379a000000000000000000000000000000000000000000000000000000000815260040161050790610e8c565b60405180910390fd5b60006004600084815260200190815260200160002054905060008111801561053d57506003805490508111155b156106a35760038054905081146105cb576000600360016003805490506105649190610f82565b8154811061057557610574611075565b5b906000526020600020015490508060036001846105929190610f82565b815481106105a3576105a2611075565b5b9060005260206000200181905550816004600083815260200190815260200160002081905550505b60038054806105dd576105dc611046565b5b600190038181906000526020600020016000905590556000600460008581526020019081526020016000208190555060006002600085815260200190815260200160002060006101000a81548173ffffffffffffffffffffffffffffffffffffffff021916908373ffffffffffffffffffffffffffffffffffffffff1602179055507fe3d908a1f6d2467f8e7c8198f30125843211345eedb763beb4cdfb7fe728a5af600084604051610691929190610e0b565b60405180910390a160019150506106a9565b60009150505b919050565b6000600380549050905090565b60008060001b8311610702576040517f08c379a00000000000000000000000000000000000000000000000000000000081526004016106f990610eec565b60405180910390fd5b600073ffffffffffffffffffffffffffffffffffffffff168273ffffffffffffffffffffffffffffffffffffffff161415610772576040517f08c379a000000000000000000000000000000000000000000000000000000000815260040161076990610ecc565b60405180910390fd5b61077b336108b2565b6107ba576040517f08c379a00000000000000000000000000000000000000000000000000000000081526004016107b190610e8c565b60405180910390fd5b60006004600085815260200190815260200160002054141561081d57600383908060018154018082558091505060019003906000526020600020016000909190919091505560038054905060046000858152602001908152602001600020819055505b816002600085815260200190815260200160002060006101000a81548173ffffffffffffffffffffffffffffffffffffffff021916908373ffffffffffffffffffffffffffffffffffffffff1602179055507fe3d908a1f6d2467f8e7c8198f30125843211345eedb763beb4cdfb7fe728a5af82846040516108a0929190610e0b565b60405180910390a16001905092915050565b60008073ffffffffffffffffffffffffffffffffffffffff1660026000600154815260200190815260200160002060009054906101000a900473ffffffffffffffffffffffffffffffffffffffff1673ffffffffffffffffffffffffffffffffffffffff16141561092657600190506109e7565b60026000600154815260200190815260200160002060009054906101000a900473ffffffffffffffffffffffffffffffffffffffff1673ffffffffffffffffffffffffffffffffffffffff1663fe9fbb80836040518263ffffffff1660e01b81526004016109949190610d86565b60206040518083038186803b1580156109ac57600080fd5b505afa1580156109c0573d6000803e3d6000fd5b505050506040513d601f19601f820116820180604052508101906109e49190610b72565b90505b919050565b6000813590506109fb8161120a565b92915050565b600081519050610a1081611221565b92915050565b600081359050610a2581611238565b92915050565b60008083601f840112610a4157610a406110a9565b5b8235905067ffffffffffffffff811115610a5e57610a5d6110a4565b5b602083019150836001820283011115610a7a57610a796110ae565b5b9250929050565b600081359050610a908161124f565b92915050565b600060208284031215610aac57610aab6110b8565b5b6000610aba848285016109ec565b91505092915050565b600080600080600080600060c0888a031215610ae257610ae16110b8565b5b6000610af08a828b016109ec565b9750506020610b018a828b016109ec565b9650506040610b128a828b01610a81565b9550506060610b238a828b01610a81565b9450506080610b348a828b01610a81565b93505060a088013567ffffffffffffffff811115610b5557610b546110b3565b5b610b618a828b01610a2b565b925092505092959891949750929550565b600060208284031215610b8857610b876110b8565b5b6000610b9684828501610a01565b91505092915050565b600060208284031215610bb557610bb46110b8565b5b6000610bc384828501610a16565b91505092915050565b60008060408385031215610be357610be26110b8565b5b6000610bf185828601610a16565b9250506020610c02858286016109ec565b9150509250929050565b6000610c188383610ca0565b60208301905092915050565b610c2d81610fb6565b82525050565b6000610c3e82610f37565b610c488185610f4f565b9350610c5383610f27565b8060005b83811015610c84578151610c6b8882610c0c565b9750610c7683610f42565b925050600181019050610c57565b5085935050505092915050565b610c9a81610fc8565b82525050565b610ca981610fd4565b82525050565b610cb881610fd4565b82525050565b6000610cca8385610f60565b9350610cd7838584611008565b610ce0836110bd565b840190509392505050565b6000610cf8602b83610f71565b9150610d03826110ce565b604082019050919050565b6000610d1b604783610f71565b9150610d268261111d565b606082019050919050565b6000610d3e602283610f71565b9150610d4982611192565b604082019050919050565b6000610d61602083610f71565b9150610d6c826111e1565b602082019050919050565b610d8081610ffe565b82525050565b6000602082019050610d9b6000830184610c24565b92915050565b600060c082019050610db6600083018a610c24565b610dc36020830189610c24565b610dd06040830188610d77565b610ddd6060830187610d77565b610dea6080830186610d77565b81810360a0830152610dfd818486610cbe565b905098975050505050505050565b6000604082019050610e206000830185610c24565b610e2d6020830184610caf565b9392505050565b60006020820190508181036000830152610e4e8184610c33565b905092915050565b6000602082019050610e6b6000830184610c91565b92915050565b6000602082019050610e866000830184610caf565b92915050565b60006020820190508181036000830152610ea581610ceb565b9050919050565b60006020820190508181036000830152610ec581610d0e565b9050919050565b60006020820190508181036000830152610ee581610d31565b9050919050565b60006020820190508181036000830152610f0581610d54565b9050919050565b6000602082019050610f216000830184610d77565b92915050565b6000819050602082019050919050565b600081519050919050565b6000602082019050919050565b600082825260208201905092915050565b600082825260208201905092915050565b600082825260208201905092915050565b6000610f8d82610ffe565b9150610f9883610ffe565b925082821015610fab57610faa611017565b5b828203905092915050565b6000610fc182610fde565b9050919050565b60008115159050919050565b6000819050919050565b600073ffffffffffffffffffffffffffffffffffffffff82169050919050565b6000819050919050565b82818337600083830152505050565b7f4e487b7100000000000000000000000000000000000000000000000000000000600052601160045260246000fd5b7f4e487b7100000000000000000000000000000000000000000000000000000000600052603160045260246000fd5b7f4e487b7100000000000000000000000000000000000000000000000000000000600052603260045260246000fd5b600080fd5b600080fd5b600080fd5b600080fd5b600080fd5b6000601f19601f8301169050919050565b7f4e6f7420617574686f72697a656420746f2075706461746520636f6e7472616360008201527f742072656769737472792e000000000000000000000000000000000000000000602082015250565b7f4d7573742068617665206174206c65617374206f6e652072656769737465726560008201527f6420636f6e747261637420746f20657865637574652064656c657465206f706560208201527f726174696f6e2e00000000000000000000000000000000000000000000000000604082015250565b7f436f6e74726163742061646472657373206d757374206e6f74206265207a657260008201527f6f2e000000000000000000000000000000000000000000000000000000000000602082015250565b7f436f6e7472616374206e616d65206d757374206e6f7420626520656d7074792e600082015250565b61121381610fb6565b811461121e57600080fd5b50565b61122a81610fc8565b811461123557600080fd5b50565b61124181610fd4565b811461124c57600080fd5b50565b61125881610ffe565b811461126357600080fd5b5056fea26469706673582212206d79fb081783ec8dc56d0d83a188917b7a4c220bd966b830dbeda245a6b43dd664736f6c63430008060033",
    "immutableReferences": {},
    "source": "/*\n * Copyright ConsenSys AG.\n *\n * Licensed under the Apache License, Version 2.0 (the \"License\"); you may not use this file except in compliance with\n * the License. You may obtain a copy of the License at\n *\n * http://www.apache.org/licenses/LICENSE-2.0\n *\n * Unless required by applicable law or agreed to in writing, software distributed under the License is distributed on\n * an \"AS IS\" BASIS, WITHOUT WARRANTIES OR CONDITIONS OF ANY KIND, either express or implied. See the License for the\n * specific language governing permissions and limitations under the License.\n *\n * SPDX-License-Identifier: Apache-2.0\n */\npragma solidity >=0.6.0 <0.9.0;\n\nimport \"./AccountRulesProxy.sol\";\nimport \"./Ingress.sol\";\n\n\ncontract AccountIngress is Ingress {\n    // version of this contract: semver eg 1.2.14 represented like 001002014\n    uint private version = 1000000;\n\n    function getContractVersion() external view returns(uint) {\n        return version;\n    }\n\n    function transactionAllowed(\n        address sender,\n        address target,\n        uint256 value,\n        uint256 gasPrice,\n        uint256 gasLimit,\n        bytes calldata payload\n    ) external view returns (bool) {\n        if(getContractAddress(RULES_CONTRACT) == address(0)) {\n            return true;\n        }\n\n        return AccountRulesProxy(registry[RULES_CONTRACT]).transactionAllowed(\n            sender, target, value, gasPrice, gasLimit, payload\n        );\n    }\n}\n",
    "sourcePath": "/home/bryba/Projects/permissioning-smart-contracts/contracts/AccountIngress.sol",
    "compiler": {
        "name": "solc",
        "version": "0.8.6+commit.11564f7e.Emscripten.clang"
    },
    "schemaVersion": "3.4.3",
    "updatedAt": "2022-01-12T09:28:38.853Z",
    "networkType": "ethereum",
    "devdoc": {
        "kind": "dev",
        "methods": {},
        "version": 1
    },
    "userdoc": {
        "kind": "user",
        "methods": {},
        "version": 1
    }
}