{
  "contractName": "AccountRules",
  "abi": [
    {
      "inputs": [
        {
          "internalType": "contract AccountIngress",
          "name": "_ingressContract",
          "type": "address"
        },
        {
          "internalType": "contract AccountStorage",
          "name": "_storage",
          "type": "address"
        }
      ],
      "stateMutability": "nonpayable",
      "type": "constructor"
    },
    {
      "anonymous": false,
      "inputs": [
        {
          "indexed": false,
          "internalType": "bool",
          "name": "accountAdded",
          "type": "bool"
        },
        {
          "indexed": false,
          "internalType": "address",
          "name": "accountAddress",
          "type": "address"
        }
      ],
      "name": "AccountAdded",
      "type": "event"
    },
    {
      "anonymous": false,
      "inputs": [
        {
          "indexed": false,
          "internalType": "bool",
          "name": "accountRemoved",
          "type": "bool"
        },
        {
          "indexed": false,
          "internalType": "address",
          "name": "accountAddress",
          "type": "address"
        }
      ],
      "name": "AccountRemoved",
      "type": "event"
    },
    {
      "inputs": [],
      "name": "getAccounts",
      "outputs": [
        {
          "internalType": "address[]",
          "name": "",
          "type": "address[]"
        }
      ],
      "stateMutability": "view",
      "type": "function",
      "constant": true
    },
    {
      "inputs": [
        {
          "internalType": "uint256",
          "name": "index",
          "type": "uint256"
        }
      ],
      "name": "getByIndex",
      "outputs": [
        {
          "internalType": "address",
          "name": "account",
          "type": "address"
        }
      ],
      "stateMutability": "view",
      "type": "function",
      "constant": true
    },
    {
      "inputs": [],
      "name": "getContractVersion",
      "outputs": [
        {
          "internalType": "uint256",
          "name": "",
          "type": "uint256"
        }
      ],
      "stateMutability": "view",
      "type": "function",
      "constant": true
    },
    {
      "inputs": [],
      "name": "isReadOnly",
      "outputs": [
        {
          "internalType": "bool",
          "name": "",
          "type": "bool"
        }
      ],
      "stateMutability": "view",
      "type": "function",
      "constant": true
    },
    {
      "inputs": [],
      "name": "enterReadOnly",
      "outputs": [
        {
          "internalType": "bool",
          "name": "",
          "type": "bool"
        }
      ],
      "stateMutability": "nonpayable",
      "type": "function"
    },
    {
      "inputs": [],
      "name": "exitReadOnly",
      "outputs": [
        {
          "internalType": "bool",
          "name": "",
          "type": "bool"
        }
      ],
      "stateMutability": "nonpayable",
      "type": "function"
    },
    {
      "inputs": [
        {
          "internalType": "address",
          "name": "sender",
          "type": "address"
        },
        {
          "internalType": "address",
          "name": "",
          "type": "address"
        },
        {
          "internalType": "uint256",
          "name": "",
          "type": "uint256"
        },
        {
          "internalType": "uint256",
          "name": "",
          "type": "uint256"
        },
        {
          "internalType": "uint256",
          "name": "",
          "type": "uint256"
        },
        {
          "internalType": "bytes",
          "name": "",
          "type": "bytes"
        }
      ],
      "name": "transactionAllowed",
      "outputs": [
        {
          "internalType": "bool",
          "name": "",
          "type": "bool"
        }
      ],
      "stateMutability": "view",
      "type": "function",
      "constant": true
    },
    {
      "inputs": [
        {
          "internalType": "address",
          "name": "_account",
          "type": "address"
        }
      ],
      "name": "accountPermitted",
      "outputs": [
        {
          "internalType": "bool",
          "name": "",
          "type": "bool"
        }
      ],
      "stateMutability": "view",
      "type": "function",
      "constant": true
    },
    {
      "inputs": [
        {
          "internalType": "address",
          "name": "account",
          "type": "address"
        }
      ],
      "name": "addAccount",
      "outputs": [
        {
          "internalType": "bool",
          "name": "",
          "type": "bool"
        }
      ],
      "stateMutability": "nonpayable",
      "type": "function"
    },
    {
      "inputs": [
        {
          "internalType": "address",
          "name": "account",
          "type": "address"
        }
      ],
      "name": "removeAccount",
      "outputs": [
        {
          "internalType": "bool",
          "name": "",
          "type": "bool"
        }
      ],
      "stateMutability": "nonpayable",
      "type": "function"
    },
    {
      "inputs": [],
      "name": "getSize",
      "outputs": [
        {
          "internalType": "uint256",
          "name": "",
          "type": "uint256"
        }
      ],
      "stateMutability": "view",
      "type": "function",
      "constant": true
    },
    {
      "inputs": [
        {
          "internalType": "address[]",
          "name": "accounts",
          "type": "address[]"
        }
      ],
      "name": "addAccounts",
      "outputs": [
        {
          "internalType": "bool",
          "name": "",
          "type": "bool"
        }
      ],
      "stateMutability": "nonpayable",
      "type": "function"
    }
  ],
  "bytecode": "0x608060405260008060146101000a81548160ff021916908315150217905550622dc6c06001553480156200003257600080fd5b5060405162001ae038038062001ae0833981810160405281019062000058919062000123565b6200006981620000b260201b60201c565b81600260006101000a81548173ffffffffffffffffffffffffffffffffffffffff021916908373ffffffffffffffffffffffffffffffffffffffff1602179055505050620001ff565b806000806101000a81548173ffffffffffffffffffffffffffffffffffffffff021916908373ffffffffffffffffffffffffffffffffffffffff16021790555050565b6000815190506200010681620001cb565b92915050565b6000815190506200011d81620001e5565b92915050565b600080604083850312156200013d576200013c620001c6565b5b60006200014d85828601620000f5565b925050602062000160858286016200010c565b9150509250929050565b60006200017782620001a6565b9050919050565b60006200018b826200016a565b9050919050565b60006200019f826200016a565b9050919050565b600073ffffffffffffffffffffffffffffffffffffffff82169050919050565b600080fd5b620001d6816200017e565b8114620001e257600080fd5b50565b620001f08162000192565b8114620001fc57600080fd5b50565b6118d1806200020f6000396000f3fe608060405234801561001057600080fd5b50600436106100b45760003560e01c8063ac71abde11610071578063ac71abde146101a3578063c4740a95146101d3578063d8cec92514610203578063dc2a60f614610221578063de8fa4311461023f578063e89b0e1e1461025d576100b4565b80630c6e35d5146100b95780630f68f0b3146100d75780632d883a73146101075780638a48ac03146101375780638aa1043514610155578063936421d514610173575b600080fd5b6100c161028d565b6040516100ce91906113ee565b60405180910390f35b6100f160048036038101906100ec9190610fee565b61034e565b6040516100fe91906113ee565b60405180910390f35b610121600480360381019061011c91906111e7565b610360565b60405161012e91906113b1565b60405180910390f35b61013f610413565b60405161014c91906113cc565b60405180910390f35b61015d6104bd565b60405161016a91906114ed565b60405180910390f35b61018d60048036038101906101889190611048565b6104c7565b60405161019a91906113ee565b60405180910390f35b6101bd60048036038101906101b891906110f7565b610507565b6040516101ca91906113ee565b60405180910390f35b6101ed60048036038101906101e89190610fee565b6105a3565b6040516101fa91906113ee565b60405180910390f35b61020b61068c565b60405161021891906113ee565b60405180910390f35b61022961074e565b60405161023691906113ee565b60405180910390f35b610247610764565b60405161025491906114ed565b60405180910390f35b61027760048036038101906102729190610fee565b610773565b60405161028491906113ee565b60405180910390f35b60006102983361085c565b6102d7576040517f08c379a00000000000000000000000000000000000000000000000000000000081526004016102ce9061144d565b60405180910390fd5b60011515600060149054906101000a900460ff1615151461032d576040517f08c379a0000000000000000000000000000000000000000000000000000000008152600401610324906114cd565b60405180910390fd5b60008060146101000a81548160ff0219169083151502179055506001905090565b600061035982610aac565b9050919050565b60008060009054906101000a900473ffffffffffffffffffffffffffffffffffffffff1673ffffffffffffffffffffffffffffffffffffffff16632d883a73836040518263ffffffff1660e01b81526004016103bc91906114ed565b60206040518083038186803b1580156103d457600080fd5b505afa1580156103e8573d6000803e3d6000fd5b505050506040513d601f19601f8201168201806040525081019061040c919061101b565b9050919050565b606060008054906101000a900473ffffffffffffffffffffffffffffffffffffffff1673ffffffffffffffffffffffffffffffffffffffff16638a48ac036040518163ffffffff1660e01b815260040160006040518083038186803b15801561047b57600080fd5b505afa15801561048f573d6000803e3d6000fd5b505050506040513d6000823e3d601f19601f820116820180604052508101906104b89190611144565b905090565b6000600154905090565b60006104d28861034e565b156104e057600190506104fc565b6104e98861085c565b156104f757600190506104fc565b600090505b979650505050505050565b60006105123361085c565b610551576040517f08c379a00000000000000000000000000000000000000000000000000000000081526004016105489061144d565b60405180910390fd5b61059b838380806020026020016040519081016040528093929190818152602001838360200280828437600081840152601f19601f82011690508083019250505050505050610b5f565b905092915050565b60006105ae3361085c565b6105ed576040517f08c379a00000000000000000000000000000000000000000000000000000000081526004016105e49061144d565b60405180910390fd5b600060149054906101000a900460ff161561063d576040517f08c379a00000000000000000000000000000000000000000000000000000000081526004016106349061148d565b60405180910390fd5b600061064883610c16565b90507ff9cfee605255fa33725274ecbb6100757021c2c1679bb4538c8fad791751a4d9818460405161067b929190611409565b60405180910390a180915050919050565b60006106973361085c565b6106d6576040517f08c379a00000000000000000000000000000000000000000000000000000000081526004016106cd9061144d565b60405180910390fd5b60001515600060149054906101000a900460ff1615151461072c576040517f08c379a00000000000000000000000000000000000000000000000000000000081526004016107239061146d565b60405180910390fd5b6001600060146101000a81548160ff0219169083151502179055506001905090565b60008060149054906101000a900460ff16905090565b600061076e610ccb565b905090565b600061077e3361085c565b6107bd576040517f08c379a00000000000000000000000000000000000000000000000000000000081526004016107b49061144d565b60405180910390fd5b600060149054906101000a900460ff161561080d576040517f08c379a00000000000000000000000000000000000000000000000000000000081526004016108049061148d565b60405180910390fd5b600061081883610d71565b90507fe39119db1877d19873ffb44540ac1dbd9ca72da5413d351392ce967885031aa4818460405161084b929190611409565b60405180910390a180915050919050565b600080600260009054906101000a900473ffffffffffffffffffffffffffffffffffffffff1673ffffffffffffffffffffffffffffffffffffffff16630d2020dd600260009054906101000a900473ffffffffffffffffffffffffffffffffffffffff1673ffffffffffffffffffffffffffffffffffffffff16631e7c27cb6040518163ffffffff1660e01b815260040160206040518083038186803b15801561090557600080fd5b505afa158015610919573d6000803e3d6000fd5b505050506040513d601f19601f8201168201806040525081019061093d91906111ba565b6040518263ffffffff1660e01b81526004016109599190611432565b60206040518083038186803b15801561097157600080fd5b505afa158015610985573d6000803e3d6000fd5b505050506040513d601f19601f820116820180604052508101906109a9919061101b565b9050600073ffffffffffffffffffffffffffffffffffffffff168173ffffffffffffffffffffffffffffffffffffffff161415610a1b576040517f08c379a0000000000000000000000000000000000000000000000000000000008152600401610a12906114ad565b60405180910390fd5b8073ffffffffffffffffffffffffffffffffffffffff1663fe9fbb80846040518263ffffffff1660e01b8152600401610a5491906113b1565b60206040518083038186803b158015610a6c57600080fd5b505afa158015610a80573d6000803e3d6000fd5b505050506040513d601f19601f82011682018060405250810190610aa4919061118d565b915050919050565b60008060009054906101000a900473ffffffffffffffffffffffffffffffffffffffff1673ffffffffffffffffffffffffffffffffffffffff1663f6a3d24e836040518263ffffffff1660e01b8152600401610b0891906113b1565b60206040518083038186803b158015610b2057600080fd5b505afa158015610b34573d6000803e3d6000fd5b505050506040513d601f19601f82011682018060405250810190610b58919061118d565b9050919050565b6000806001905060005b8351811015610c0c576000610b97858381518110610b8a57610b8961169e565b5b6020026020010151610d71565b90507fe39119db1877d19873ffb44540ac1dbd9ca72da5413d351392ce967885031aa481868481518110610bce57610bcd61169e565b5b6020026020010151604051610be4929190611409565b60405180910390a1828015610bf65750805b9250508080610c0490611626565b915050610b69565b5080915050919050565b60008060009054906101000a900473ffffffffffffffffffffffffffffffffffffffff1673ffffffffffffffffffffffffffffffffffffffff166329092d0e836040518263ffffffff1660e01b8152600401610c7291906113b1565b602060405180830381600087803b158015610c8c57600080fd5b505af1158015610ca0573d6000803e3d6000fd5b505050506040513d601f19601f82011682018060405250810190610cc4919061118d565b9050919050565b60008060009054906101000a900473ffffffffffffffffffffffffffffffffffffffff1673ffffffffffffffffffffffffffffffffffffffff1663949d225d6040518163ffffffff1660e01b815260040160206040518083038186803b158015610d3457600080fd5b505afa158015610d48573d6000803e3d6000fd5b505050506040513d601f19601f82011682018060405250810190610d6c9190611214565b905090565b60008060009054906101000a900473ffffffffffffffffffffffffffffffffffffffff1673ffffffffffffffffffffffffffffffffffffffff16630a3b0a4f836040518263ffffffff1660e01b8152600401610dcd91906113b1565b602060405180830381600087803b158015610de757600080fd5b505af1158015610dfb573d6000803e3d6000fd5b505050506040513d601f19601f82011682018060405250810190610e1f919061118d565b9050919050565b6000610e39610e348461152d565b611508565b90508083825260208201905082856020860282011115610e5c57610e5b611706565b5b60005b85811015610e8c5781610e728882610eab565b845260208401935060208301925050600181019050610e5f565b5050509392505050565b600081359050610ea58161183f565b92915050565b600081519050610eba8161183f565b92915050565b60008083601f840112610ed657610ed5611701565b5b8235905067ffffffffffffffff811115610ef357610ef26116fc565b5b602083019150836020820283011115610f0f57610f0e611706565b5b9250929050565b600082601f830112610f2b57610f2a611701565b5b8151610f3b848260208601610e26565b91505092915050565b600081519050610f5381611856565b92915050565b600081519050610f688161186d565b92915050565b60008083601f840112610f8457610f83611701565b5b8235905067ffffffffffffffff811115610fa157610fa06116fc565b5b602083019150836001820283011115610fbd57610fbc611706565b5b9250929050565b600081359050610fd381611884565b92915050565b600081519050610fe881611884565b92915050565b60006020828403121561100457611003611710565b5b600061101284828501610e96565b91505092915050565b60006020828403121561103157611030611710565b5b600061103f84828501610eab565b91505092915050565b600080600080600080600060c0888a03121561106757611066611710565b5b60006110758a828b01610e96565b97505060206110868a828b01610e96565b96505060406110978a828b01610fc4565b95505060606110a88a828b01610fc4565b94505060806110b98a828b01610fc4565b93505060a088013567ffffffffffffffff8111156110da576110d961170b565b5b6110e68a828b01610f6e565b925092505092959891949750929550565b6000806020838503121561110e5761110d611710565b5b600083013567ffffffffffffffff81111561112c5761112b61170b565b5b61113885828601610ec0565b92509250509250929050565b60006020828403121561115a57611159611710565b5b600082015167ffffffffffffffff8111156111785761117761170b565b5b61118484828501610f16565b91505092915050565b6000602082840312156111a3576111a2611710565b5b60006111b184828501610f44565b91505092915050565b6000602082840312156111d0576111cf611710565b5b60006111de84828501610f59565b91505092915050565b6000602082840312156111fd576111fc611710565b5b600061120b84828501610fc4565b91505092915050565b60006020828403121561122a57611229611710565b5b600061123884828501610fd9565b91505092915050565b600061124d8383611259565b60208301905092915050565b611262816115a3565b82525050565b611271816115a3565b82525050565b600061128282611569565b61128c8185611581565b935061129783611559565b8060005b838110156112c85781516112af8882611241565b97506112ba83611574565b92505060018101905061129b565b5085935050505092915050565b6112de816115b5565b82525050565b6112ed816115c1565b82525050565b6000611300601583611592565b915061130b82611726565b602082019050919050565b6000611323601983611592565b915061132e8261174f565b602082019050919050565b6000611346602b83611592565b915061135182611778565b604082019050919050565b6000611369603483611592565b9150611374826117c7565b604082019050919050565b600061138c601583611592565b915061139782611816565b602082019050919050565b6113ab816115eb565b82525050565b60006020820190506113c66000830184611268565b92915050565b600060208201905081810360008301526113e68184611277565b905092915050565b600060208201905061140360008301846112d5565b92915050565b600060408201905061141e60008301856112d5565b61142b6020830184611268565b9392505050565b600060208201905061144760008301846112e4565b92915050565b60006020820190508181036000830152611466816112f3565b9050919050565b6000602082019050818103600083015261148681611316565b9050919050565b600060208201905081810360008301526114a681611339565b9050919050565b600060208201905081810360008301526114c68161135c565b9050919050565b600060208201905081810360008301526114e68161137f565b9050919050565b600060208201905061150260008301846113a2565b92915050565b6000611512611523565b905061151e82826115f5565b919050565b6000604051905090565b600067ffffffffffffffff821115611548576115476116cd565b5b602082029050602081019050919050565b6000819050602082019050919050565b600081519050919050565b6000602082019050919050565b600082825260208201905092915050565b600082825260208201905092915050565b60006115ae826115cb565b9050919050565b60008115159050919050565b6000819050919050565b600073ffffffffffffffffffffffffffffffffffffffff82169050919050565b6000819050919050565b6115fe82611715565b810181811067ffffffffffffffff8211171561161d5761161c6116cd565b5b80604052505050565b6000611631826115eb565b91507fffffffffffffffffffffffffffffffffffffffffffffffffffffffffffffffff8214156116645761166361166f565b5b600182019050919050565b7f4e487b7100000000000000000000000000000000000000000000000000000000600052601160045260246000fd5b7f4e487b7100000000000000000000000000000000000000000000000000000000600052603260045260246000fd5b7f4e487b7100000000000000000000000000000000000000000000000000000000600052604160045260246000fd5b600080fd5b600080fd5b600080fd5b600080fd5b600080fd5b6000601f19601f8301169050919050565b7f53656e646572206e6f7420617574686f72697a65640000000000000000000000600082015250565b7f416c726561647920696e2072656164206f6e6c79206d6f646500000000000000600082015250565b7f496e2072656164206f6e6c79206d6f64653a2072756c65732063616e6e6f742060008201527f6265206d6f646966696564000000000000000000000000000000000000000000602082015250565b7f496e677265737320636f6e7472616374206d75737420686176652041646d696e60008201527f20636f6e74726163742072656769737465726564000000000000000000000000602082015250565b7f4e6f7420696e2072656164206f6e6c79206d6f64650000000000000000000000600082015250565b611848816115a3565b811461185357600080fd5b50565b61185f816115b5565b811461186a57600080fd5b50565b611876816115c1565b811461188157600080fd5b50565b61188d816115eb565b811461189857600080fd5b5056fea26469706673582212202b8cbf5f4b67e22ba7f415c8203c33d2a59d348025b5e7cea771541c0e68e1ae64736f6c63430008060033",
  "immutableReferences": {},
  "source": "/*\n * Copyright ConsenSys AG.\n *\n * Licensed under the Apache License, Version 2.0 (the \"License\"); you may not use this file except in compliance with\n * the License. You may obtain a copy of the License at\n *\n * http://www.apache.org/licenses/LICENSE-2.0\n *\n * Unless required by applicable law or agreed to in writing, software distributed under the License is distributed on\n * an \"AS IS\" BASIS, WITHOUT WARRANTIES OR CONDITIONS OF ANY KIND, either express or implied. See the License for the\n * specific language governing permissions and limitations under the License.\n *\n * SPDX-License-Identifier: Apache-2.0\n */\npragma solidity >=0.6.0 <0.9.0;\n\nimport \"./AccountRulesProxy.sol\";\nimport \"./AccountRulesList.sol\";\nimport \"./AccountIngress.sol\";\nimport \"./Admin.sol\";\nimport \"./AccountStorage.sol\";\n\n\ncontract AccountRules is AccountRulesProxy, AccountRulesList {\n\n    // in read-only mode rules can't be added/removed\n    // this will be used to protect data when upgrading contracts\n    bool private readOnlyMode = false;\n    // version of this contract: semver like 1.2.14 represented like 001002014\n    uint private version = 3000000;\n\n    AccountIngress private ingressContract;\n\n    modifier onlyOnEditMode() {\n        require(!readOnlyMode, \"In read only mode: rules cannot be modified\");\n        _;\n    }\n\n    modifier onlyAdmin() {\n        require(isAuthorizedAdmin(msg.sender), \"Sender not authorized\");\n        _;\n    }\n\n    constructor (AccountIngress _ingressContract, AccountStorage _storage) public {\n        setStorage(_storage);\n        ingressContract = _ingressContract;\n    }\n\n    // VERSION\n    function getContractVersion() external view returns (uint) {\n        return version;\n    }\n\n    // READ ONLY MODE\n    function isReadOnly() external view returns (bool) {\n        return readOnlyMode;\n    }\n\n    function enterReadOnly() external onlyAdmin returns (bool) {\n        require(readOnlyMode == false, \"Already in read only mode\");\n        readOnlyMode = true;\n        return true;\n    }\n\n    function exitReadOnly() external onlyAdmin returns (bool) {\n        require(readOnlyMode == true, \"Not in read only mode\");\n        readOnlyMode = false;\n        return true;\n    }\n\n    function transactionAllowed(\n        address sender,\n        address, // target\n        uint256, // value\n        uint256, // gasPrice\n        uint256, // gasLimit\n        bytes calldata // payload\n    ) external override view returns (bool) {\n        if (accountPermitted(sender)) {\n            return true;\n        }\n        if (isAuthorizedAdmin(sender)) {\n            return true;\n        }\n        return false;\n    }\n\n    function accountPermitted(\n        address _account\n    ) public view returns (bool) {\n        return exists(_account);\n    }\n\n    function addAccount(\n        address account\n    ) external onlyAdmin onlyOnEditMode returns (bool) {\n        bool added = add(account);\n        emit AccountAdded(added, account);\n        return added;\n    }\n\n    function removeAccount(\n        address account\n    ) external onlyAdmin onlyOnEditMode returns (bool) {\n        bool removed = remove(account);\n        emit AccountRemoved(removed, account);\n        return removed;\n    }\n\n    function getSize() external view returns (uint) {\n        return size();\n    }\n\n    function addAccounts(address[] calldata accounts) external onlyAdmin returns (bool) {\n        return addAll(accounts);\n    }\n\n    function isAuthorizedAdmin(address user) private view returns (bool) {\n        address adminContractAddress = ingressContract.getContractAddress(ingressContract.ADMIN_CONTRACT());\n\n        require(adminContractAddress != address(0), \"Ingress contract must have Admin contract registered\");\n        return Admin(adminContractAddress).isAuthorized(user);\n    }\n}\n",
  "sourcePath": "/home/bryba/Projects/permissioning-smart-contracts/contracts/AccountRules.sol",
  "compiler": {
    "name": "solc",
    "version": "0.8.6+commit.11564f7e.Emscripten.clang"
  },
  "schemaVersion": "3.4.3",
  "updatedAt": "2022-01-12T09:28:38.844Z",
  "networkType": "ethereum",
  "devdoc": {
    "kind": "dev",
    "methods": {},
    "version": 1
  },
  "userdoc": {
    "kind": "user",
    "methods": {},
    "version": 1
  }
}